{
  "_format": "hh-sol-artifact-1",
  "contractName": "AuditTrail",
  "sourceName": "contracts/AuditTrail.sol",
  "abi": [
    {
      "inputs": [
        {
          "internalType": "address",
          "name": "_registry",
          "type": "address"
        }
      ],
      "stateMutability": "nonpayable",
      "type": "constructor"
    },
    {
      "anonymous": false,
      "inputs": [
        {
          "indexed": true,
          "internalType": "uint256",
          "name": "index",
          "type": "uint256"
        },
        {
          "indexed": true,
          "internalType": "address",
          "name": "machineAddress",
          "type": "address"
        },
        {
          "indexed": false,
          "internalType": "bytes32",
          "name": "outputHash",
          "type": "bytes32"
        },
        {
          "indexed": false,
          "internalType": "uint256",
          "name": "timestamp",
          "type": "uint256"
        },
        {
          "indexed": false,
          "internalType": "string",
          "name": "dataReference",
          "type": "string"
        },
        {
          "indexed": false,
          "internalType": "bytes32",
          "name": "attestationHash",
          "type": "bytes32"
        }
      ],
      "name": "AuditEntryStored",
      "type": "event"
    },
    {
      "inputs": [
        {
          "internalType": "address",
          "name": "machineAddress",
          "type": "address"
        },
        {
          "internalType": "bytes32",
          "name": "outputHash",
          "type": "bytes32"
        },
        {
          "internalType": "string",
          "name": "dataReference",
          "type": "string"
        },
        {
          "internalType": "bytes",
          "name": "signature",
          "type": "bytes"
        },
        {
          "internalType": "bytes32",
          "name": "attestationHash",
          "type": "bytes32"
        }
      ],
      "name": "addAuditRecord",
      "outputs": [],
      "stateMutability": "nonpayable",
      "type": "function"
    },
    {
      "inputs": [
        {
          "internalType": "uint256",
          "name": "",
          "type": "uint256"
        }
      ],
      "name": "auditTrail",
      "outputs": [
        {
          "internalType": "address",
          "name": "machineAddress",
          "type": "address"
        },
        {
          "internalType": "bytes32",
          "name": "outputHash",
          "type": "bytes32"
        },
        {
          "internalType": "uint256",
          "name": "timestamp",
          "type": "uint256"
        },
        {
          "internalType": "string",
          "name": "dataReference",
          "type": "string"
        },
        {
          "internalType": "bytes",
          "name": "signature",
          "type": "bytes"
        },
        {
          "internalType": "bytes32",
          "name": "attestationHash",
          "type": "bytes32"
        }
      ],
      "stateMutability": "view",
      "type": "function"
    },
    {
      "inputs": [
        {
          "internalType": "uint256",
          "name": "index",
          "type": "uint256"
        }
      ],
      "name": "getAuditRecord",
      "outputs": [
        {
          "components": [
            {
              "internalType": "address",
              "name": "machineAddress",
              "type": "address"
            },
            {
              "internalType": "bytes32",
              "name": "outputHash",
              "type": "bytes32"
            },
            {
              "internalType": "uint256",
              "name": "timestamp",
              "type": "uint256"
            },
            {
              "internalType": "string",
              "name": "dataReference",
              "type": "string"
            },
            {
              "internalType": "bytes",
              "name": "signature",
              "type": "bytes"
            },
            {
              "internalType": "bytes32",
              "name": "attestationHash",
              "type": "bytes32"
            }
          ],
          "internalType": "struct AuditTrail.AuditRecord",
          "name": "",
          "type": "tuple"
        }
      ],
      "stateMutability": "view",
      "type": "function"
    },
    {
      "inputs": [],
      "name": "getAuditTrailLength",
      "outputs": [
        {
          "internalType": "uint256",
          "name": "",
          "type": "uint256"
        }
      ],
      "stateMutability": "view",
      "type": "function"
    },
    {
      "inputs": [
        {
          "internalType": "uint256",
          "name": "index",
          "type": "uint256"
        }
      ],
      "name": "getDataReference",
      "outputs": [
        {
          "internalType": "string",
          "name": "",
          "type": "string"
        }
      ],
      "stateMutability": "view",
      "type": "function"
    },
    {
      "inputs": [],
      "name": "orchestrator",
      "outputs": [
        {
          "internalType": "address",
          "name": "",
          "type": "address"
        }
      ],
      "stateMutability": "view",
      "type": "function"
    },
    {
      "inputs": [],
      "name": "registry",
      "outputs": [
        {
          "internalType": "contract IPublicKeyRegistry",
          "name": "",
          "type": "address"
        }
      ],
      "stateMutability": "view",
      "type": "function"
    }
  ],
  "bytecode": "0x60806040523480156200001157600080fd5b506040516200192f3803806200192f83398181016040528101906200003791906200012a565b80600160006101000a81548173ffffffffffffffffffffffffffffffffffffffff021916908373ffffffffffffffffffffffffffffffffffffffff16021790555033600260006101000a81548173ffffffffffffffffffffffffffffffffffffffff021916908373ffffffffffffffffffffffffffffffffffffffff160217905550506200015c565b600080fd5b600073ffffffffffffffffffffffffffffffffffffffff82169050919050565b6000620000f282620000c5565b9050919050565b6200010481620000e5565b81146200011057600080fd5b50565b6000815190506200012481620000f9565b92915050565b600060208284031215620001435762000142620000c0565b5b6000620001538482850162000113565b91505092915050565b6117c3806200016c6000396000f3fe608060405234801561001057600080fd5b506004361061007d5760003560e01c80637b1039991161005b5780637b1039991461010057806384215e741461011e578063b74795d91461013a578063ddaf0929146101585761007d565b806328d92e331461008257806349270315146100b2578063783b8bd0146100d0575b600080fd5b61009c600480360381019061009791906109f5565b61018d565b6040516100a99190610ab2565b60405180910390f35b6100ba61028b565b6040516100c79190610ae3565b60405180910390f35b6100ea60048036038101906100e591906109f5565b610297565b6040516100f79190610c96565b60405180910390f35b6101086104b2565b6040516101159190610d17565b60405180910390f35b61013860048036038101906101339190610f60565b6104d8565b005b6101426107b7565b60405161014f9190611022565b60405180910390f35b610172600480360381019061016d91906109f5565b6107dd565b60405161018496959493929190611096565b60405180910390f35b606060008054905082106101d6576040517f08c379a00000000000000000000000000000000000000000000000000000000081526004016101cd90611151565b60405180910390fd5b600082815481106101ea576101e9611171565b5b90600052602060002090600602016003018054610206906111cf565b80601f0160208091040260200160405190810160405280929190818152602001828054610232906111cf565b801561027f5780601f106102545761010080835404028352916020019161027f565b820191906000526020600020905b81548152906001019060200180831161026257829003601f168201915b50505050509050919050565b60008080549050905090565b61029f610959565b60008054905082106102e6576040517f08c379a00000000000000000000000000000000000000000000000000000000081526004016102dd90611151565b60405180910390fd5b600082815481106102fa576102f9611171565b5b90600052602060002090600602016040518060c00160405290816000820160009054906101000a900473ffffffffffffffffffffffffffffffffffffffff1673ffffffffffffffffffffffffffffffffffffffff1673ffffffffffffffffffffffffffffffffffffffff168152602001600182015481526020016002820154815260200160038201805461038d906111cf565b80601f01602080910402602001604051908101604052809291908181526020018280546103b9906111cf565b80156104065780601f106103db57610100808354040283529160200191610406565b820191906000526020600020905b8154815290600101906020018083116103e957829003601f168201915b5050505050815260200160048201805461041f906111cf565b80601f016020809104026020016040519081016040528092919081815260200182805461044b906111cf565b80156104985780601f1061046d57610100808354040283529160200191610498565b820191906000526020600020905b81548152906001019060200180831161047b57829003601f168201915b505050505081526020016005820154815250509050919050565b600160009054906101000a900473ffffffffffffffffffffffffffffffffffffffff1681565b600260009054906101000a900473ffffffffffffffffffffffffffffffffffffffff1673ffffffffffffffffffffffffffffffffffffffff163373ffffffffffffffffffffffffffffffffffffffff1614610568576040517f08c379a000000000000000000000000000000000000000000000000000000000815260040161055f9061124c565b60405180910390fd5b600160009054906101000a900473ffffffffffffffffffffffffffffffffffffffff1673ffffffffffffffffffffffffffffffffffffffff16639c5c5173866040518263ffffffff1660e01b81526004016105c39190611022565b602060405180830381865afa1580156105e0573d6000803e3d6000fd5b505050506040513d601f19601f8201168201806040525081019061060491906112a4565b610643576040517f08c379a000000000000000000000000000000000000000000000000000000000815260040161063a9061131d565b60405180910390fd5b60006040518060c001604052808773ffffffffffffffffffffffffffffffffffffffff168152602001868152602001428152602001858152602001848152602001838152509050600081908060018154018082558091505060019003906000526020600020906006020160009091909190915060008201518160000160006101000a81548173ffffffffffffffffffffffffffffffffffffffff021916908373ffffffffffffffffffffffffffffffffffffffff1602179055506020820151816001015560408201518160020155606082015181600301908161072691906114df565b50608082015181600401908161073c919061160c565b5060a0820151816005015550508573ffffffffffffffffffffffffffffffffffffffff166001600080549050610772919061170d565b7f1e8848bf23b26ea8190b6d1071d5c90a5e001c6760205e3bf2ae95201d6eb02c874288876040516107a79493929190611741565b60405180910390a3505050505050565b600260009054906101000a900473ffffffffffffffffffffffffffffffffffffffff1681565b600081815481106107ed57600080fd5b90600052602060002090600602016000915090508060000160009054906101000a900473ffffffffffffffffffffffffffffffffffffffff1690806001015490806002015490806003018054610842906111cf565b80601f016020809104026020016040519081016040528092919081815260200182805461086e906111cf565b80156108bb5780601f10610890576101008083540402835291602001916108bb565b820191906000526020600020905b81548152906001019060200180831161089e57829003601f168201915b5050505050908060040180546108d0906111cf565b80601f01602080910402602001604051908101604052809291908181526020018280546108fc906111cf565b80156109495780601f1061091e57610100808354040283529160200191610949565b820191906000526020600020905b81548152906001019060200180831161092c57829003601f168201915b5050505050908060050154905086565b6040518060c00160405280600073ffffffffffffffffffffffffffffffffffffffff16815260200160008019168152602001600081526020016060815260200160608152602001600080191681525090565b6000604051905090565b600080fd5b600080fd5b6000819050919050565b6109d2816109bf565b81146109dd57600080fd5b50565b6000813590506109ef816109c9565b92915050565b600060208284031215610a0b57610a0a6109b5565b5b6000610a19848285016109e0565b91505092915050565b600081519050919050565b600082825260208201905092915050565b60005b83811015610a5c578082015181840152602081019050610a41565b60008484015250505050565b6000601f19601f8301169050919050565b6000610a8482610a22565b610a8e8185610a2d565b9350610a9e818560208601610a3e565b610aa781610a68565b840191505092915050565b60006020820190508181036000830152610acc8184610a79565b905092915050565b610add816109bf565b82525050565b6000602082019050610af86000830184610ad4565b92915050565b600073ffffffffffffffffffffffffffffffffffffffff82169050919050565b6000610b2982610afe565b9050919050565b610b3981610b1e565b82525050565b6000819050919050565b610b5281610b3f565b82525050565b610b61816109bf565b82525050565b600082825260208201905092915050565b6000610b8382610a22565b610b8d8185610b67565b9350610b9d818560208601610a3e565b610ba681610a68565b840191505092915050565b600081519050919050565b600082825260208201905092915050565b6000610bd882610bb1565b610be28185610bbc565b9350610bf2818560208601610a3e565b610bfb81610a68565b840191505092915050565b600060c083016000830151610c1e6000860182610b30565b506020830151610c316020860182610b49565b506040830151610c446040860182610b58565b5060608301518482036060860152610c5c8282610b78565b91505060808301518482036080860152610c768282610bcd565b91505060a0830151610c8b60a0860182610b49565b508091505092915050565b60006020820190508181036000830152610cb08184610c06565b905092915050565b6000819050919050565b6000610cdd610cd8610cd384610afe565b610cb8565b610afe565b9050919050565b6000610cef82610cc2565b9050919050565b6000610d0182610ce4565b9050919050565b610d1181610cf6565b82525050565b6000602082019050610d2c6000830184610d08565b92915050565b610d3b81610b1e565b8114610d4657600080fd5b50565b600081359050610d5881610d32565b92915050565b610d6781610b3f565b8114610d7257600080fd5b50565b600081359050610d8481610d5e565b92915050565b600080fd5b600080fd5b7f4e487b7100000000000000000000000000000000000000000000000000000000600052604160045260246000fd5b610dcc82610a68565b810181811067ffffffffffffffff82111715610deb57610dea610d94565b5b80604052505050565b6000610dfe6109ab565b9050610e0a8282610dc3565b919050565b600067ffffffffffffffff821115610e2a57610e29610d94565b5b610e3382610a68565b9050602081019050919050565b82818337600083830152505050565b6000610e62610e5d84610e0f565b610df4565b905082815260208101848484011115610e7e57610e7d610d8f565b5b610e89848285610e40565b509392505050565b600082601f830112610ea657610ea5610d8a565b5b8135610eb6848260208601610e4f565b91505092915050565b600067ffffffffffffffff821115610eda57610ed9610d94565b5b610ee382610a68565b9050602081019050919050565b6000610f03610efe84610ebf565b610df4565b905082815260208101848484011115610f1f57610f1e610d8f565b5b610f2a848285610e40565b509392505050565b600082601f830112610f4757610f46610d8a565b5b8135610f57848260208601610ef0565b91505092915050565b600080600080600060a08688031215610f7c57610f7b6109b5565b5b6000610f8a88828901610d49565b9550506020610f9b88828901610d75565b945050604086013567ffffffffffffffff811115610fbc57610fbb6109ba565b5b610fc888828901610e91565b935050606086013567ffffffffffffffff811115610fe957610fe86109ba565b5b610ff588828901610f32565b925050608061100688828901610d75565b9150509295509295909350565b61101c81610b1e565b82525050565b60006020820190506110376000830184611013565b92915050565b61104681610b3f565b82525050565b600082825260208201905092915050565b600061106882610bb1565b611072818561104c565b9350611082818560208601610a3e565b61108b81610a68565b840191505092915050565b600060c0820190506110ab6000830189611013565b6110b8602083018861103d565b6110c56040830187610ad4565b81810360608301526110d78186610a79565b905081810360808301526110eb818561105d565b90506110fa60a083018461103d565b979650505050505050565b7f496e76616c696420696e64657800000000000000000000000000000000000000600082015250565b600061113b600d83610a2d565b915061114682611105565b602082019050919050565b6000602082019050818103600083015261116a8161112e565b9050919050565b7f4e487b7100000000000000000000000000000000000000000000000000000000600052603260045260246000fd5b7f4e487b7100000000000000000000000000000000000000000000000000000000600052602260045260246000fd5b600060028204905060018216806111e757607f821691505b6020821081036111fa576111f96111a0565b5b50919050565b7f4f6e6c79206f7263686573747261746f7220616c6c6f77656400000000000000600082015250565b6000611236601983610a2d565b915061124182611200565b602082019050919050565b6000602082019050818103600083015261126581611229565b9050919050565b60008115159050919050565b6112818161126c565b811461128c57600080fd5b50565b60008151905061129e81611278565b92915050565b6000602082840312156112ba576112b96109b5565b5b60006112c88482850161128f565b91505092915050565b7f4d616368696e65206e6f74207265676973746572656400000000000000000000600082015250565b6000611307601683610a2d565b9150611312826112d1565b602082019050919050565b60006020820190508181036000830152611336816112fa565b9050919050565b60008190508160005260206000209050919050565b60006020601f8301049050919050565b600082821b905092915050565b60006008830261139f7fffffffffffffffffffffffffffffffffffffffffffffffffffffffffffffffff82611362565b6113a98683611362565b95508019841693508086168417925050509392505050565b60006113dc6113d76113d2846109bf565b610cb8565b6109bf565b9050919050565b6000819050919050565b6113f6836113c1565b61140a611402826113e3565b84845461136f565b825550505050565b600090565b61141f611412565b61142a8184846113ed565b505050565b5b8181101561144e57611443600082611417565b600181019050611430565b5050565b601f821115611493576114648161133d565b61146d84611352565b8101602085101561147c578190505b61149061148885611352565b83018261142f565b50505b505050565b600082821c905092915050565b60006114b660001984600802611498565b1980831691505092915050565b60006114cf83836114a5565b9150826002028217905092915050565b6114e882610a22565b67ffffffffffffffff81111561150157611500610d94565b5b61150b82546111cf565b611516828285611452565b600060209050601f8311600181146115495760008415611537578287015190505b61154185826114c3565b8655506115a9565b601f1984166115578661133d565b60005b8281101561157f5784890151825560018201915060208501945060208101905061155a565b8683101561159c5784890151611598601f8916826114a5565b8355505b6001600288020188555050505b505050505050565b60008190508160005260206000209050919050565b601f821115611607576115d8816115b1565b6115e184611352565b810160208510156115f0578190505b6116046115fc85611352565b83018261142f565b50505b505050565b61161582610bb1565b67ffffffffffffffff81111561162e5761162d610d94565b5b61163882546111cf565b6116438282856115c6565b600060209050601f8311600181146116765760008415611664578287015190505b61166e85826114c3565b8655506116d6565b601f198416611684866115b1565b60005b828110156116ac57848901518255600182019150602085019450602081019050611687565b868310156116c957848901516116c5601f8916826114a5565b8355505b6001600288020188555050505b505050505050565b7f4e487b7100000000000000000000000000000000000000000000000000000000600052601160045260246000fd5b6000611718826109bf565b9150611723836109bf565b925082820390508181111561173b5761173a6116de565b5b92915050565b6000608082019050611756600083018761103d565b6117636020830186610ad4565b81810360408301526117758185610a79565b9050611784606083018461103d565b9594505050505056fea2646970667358221220be31fed16734595a485e94e24143dd2c43c7ed59179cd5d69b4599a7926a9c7064736f6c63430008180033",
  "linkReferences": {},
  "deployedLinkReferences": {}
}