{
  "_format": "hh-sol-artifact-1",
  "contractName": "PublicKeyRegistry",
  "sourceName": "contracts/PublicKeyRegistry.sol",
  "abi": [
    {
      "inputs": [],
      "stateMutability": "nonpayable",
      "type": "constructor"
    },
    {
      "anonymous": false,
      "inputs": [
        {
          "indexed": true,
          "internalType": "address",
          "name": "machineAddress",
          "type": "address"
        }
      ],
      "name": "MachineDeactivated",
      "type": "event"
    },
    {
      "anonymous": false,
      "inputs": [
        {
          "indexed": true,
          "internalType": "address",
          "name": "machineAddress",
          "type": "address"
        },
        {
          "indexed": false,
          "internalType": "bytes32",
          "name": "publicKeyHash",
          "type": "bytes32"
        },
        {
          "indexed": false,
          "internalType": "bytes32",
          "name": "attestationHash",
          "type": "bytes32"
        }
      ],
      "name": "MachineRegistered",
      "type": "event"
    },
    {
      "inputs": [
        {
          "internalType": "address",
          "name": "machineAddress",
          "type": "address"
        }
      ],
      "name": "deactivateMachine",
      "outputs": [],
      "stateMutability": "nonpayable",
      "type": "function"
    },
    {
      "inputs": [
        {
          "internalType": "address",
          "name": "machineAddress",
          "type": "address"
        }
      ],
      "name": "getAttestationHash",
      "outputs": [
        {
          "internalType": "bytes32",
          "name": "",
          "type": "bytes32"
        }
      ],
      "stateMutability": "view",
      "type": "function"
    },
    {
      "inputs": [
        {
          "internalType": "address",
          "name": "machineAddress",
          "type": "address"
        }
      ],
      "name": "getPublicKeyHash",
      "outputs": [
        {
          "internalType": "bytes32",
          "name": "",
          "type": "bytes32"
        }
      ],
      "stateMutability": "view",
      "type": "function"
    },
    {
      "inputs": [
        {
          "internalType": "address",
          "name": "machineAddress",
          "type": "address"
        }
      ],
      "name": "isMachineActive",
      "outputs": [
        {
          "internalType": "bool",
          "name": "",
          "type": "bool"
        }
      ],
      "stateMutability": "view",
      "type": "function"
    },
    {
      "inputs": [
        {
          "internalType": "address",
          "name": "",
          "type": "address"
        }
      ],
      "name": "machines",
      "outputs": [
        {
          "internalType": "bytes32",
          "name": "publicKeyHash",
          "type": "bytes32"
        },
        {
          "internalType": "bytes32",
          "name": "attestationHash",
          "type": "bytes32"
        },
        {
          "internalType": "bool",
          "name": "alreadyRegistered",
          "type": "bool"
        }
      ],
      "stateMutability": "view",
      "type": "function"
    },
    {
      "inputs": [],
      "name": "orchestrator",
      "outputs": [
        {
          "internalType": "address",
          "name": "",
          "type": "address"
        }
      ],
      "stateMutability": "view",
      "type": "function"
    },
    {
      "inputs": [
        {
          "internalType": "address",
          "name": "machineAddress",
          "type": "address"
        },
        {
          "internalType": "bytes32",
          "name": "publicKeyHash",
          "type": "bytes32"
        },
        {
          "internalType": "bytes32",
          "name": "attestationHash",
          "type": "bytes32"
        }
      ],
      "name": "registerMachine",
      "outputs": [],
      "stateMutability": "nonpayable",
      "type": "function"
    }
  ],
  "bytecode": "0x608060405234801561001057600080fd5b5033600160006101000a81548173ffffffffffffffffffffffffffffffffffffffff021916908373ffffffffffffffffffffffffffffffffffffffff160217905550610a38806100616000396000f3fe608060405234801561001057600080fd5b506004361061007d5760003560e01c80639c5c51731161005b5780639c5c5173146101005780639cbe456f14610130578063b74795d914610160578063d0a340121461017e5761007d565b806333dad1fa146100825780633c4458d8146100b25780638d387e8c146100e4575b600080fd5b61009c6004803603810190610097919061070d565b61019a565b6040516100a99190610753565b60405180910390f35b6100cc60048036038101906100c7919061070d565b6101e5565b6040516100db93929190610789565b60405180910390f35b6100fe60048036038101906100f9919061070d565b61021c565b005b61011a6004803603810190610115919061070d565b6103da565b60405161012791906107c0565b60405180910390f35b61014a6004803603810190610145919061070d565b610432565b6040516101579190610753565b60405180910390f35b61016861047d565b60405161017591906107ea565b60405180910390f35b61019860048036038101906101939190610831565b6104a3565b005b60008060008373ffffffffffffffffffffffffffffffffffffffff1673ffffffffffffffffffffffffffffffffffffffff168152602001908152602001600020600101549050919050565b60006020528060005260406000206000915090508060000154908060010154908060020160009054906101000a900460ff16905083565b600160009054906101000a900473ffffffffffffffffffffffffffffffffffffffff1673ffffffffffffffffffffffffffffffffffffffff163373ffffffffffffffffffffffffffffffffffffffff16146102ac576040517f08c379a00000000000000000000000000000000000000000000000000000000081526004016102a3906108e1565b60405180910390fd5b6000808273ffffffffffffffffffffffffffffffffffffffff1673ffffffffffffffffffffffffffffffffffffffff16815260200190815260200160002060020160009054906101000a900460ff1661033a576040517f08c379a00000000000000000000000000000000000000000000000000000000081526004016103319061094d565b60405180910390fd5b60008060008373ffffffffffffffffffffffffffffffffffffffff1673ffffffffffffffffffffffffffffffffffffffff16815260200190815260200160002060020160006101000a81548160ff0219169083151502179055508073ffffffffffffffffffffffffffffffffffffffff167f1abd442e9c3d27bf5a04bfda4bd7d6293f77b7780c4e2fb7e0f86b604157f7e660405160405180910390a250565b60008060008373ffffffffffffffffffffffffffffffffffffffff1673ffffffffffffffffffffffffffffffffffffffff16815260200190815260200160002060020160009054906101000a900460ff169050919050565b60008060008373ffffffffffffffffffffffffffffffffffffffff1673ffffffffffffffffffffffffffffffffffffffff168152602001908152602001600020600001549050919050565b600160009054906101000a900473ffffffffffffffffffffffffffffffffffffffff1681565b600160009054906101000a900473ffffffffffffffffffffffffffffffffffffffff1673ffffffffffffffffffffffffffffffffffffffff163373ffffffffffffffffffffffffffffffffffffffff1614610533576040517f08c379a000000000000000000000000000000000000000000000000000000000815260040161052a906108e1565b60405180910390fd5b6000808473ffffffffffffffffffffffffffffffffffffffff1673ffffffffffffffffffffffffffffffffffffffff16815260200190815260200160002060020160009054906101000a900460ff16156105c2576040517f08c379a00000000000000000000000000000000000000000000000000000000081526004016105b9906109b9565b60405180910390fd5b6040518060600160405280838152602001828152602001600115158152506000808573ffffffffffffffffffffffffffffffffffffffff1673ffffffffffffffffffffffffffffffffffffffff168152602001908152602001600020600082015181600001556020820151816001015560408201518160020160006101000a81548160ff0219169083151502179055509050508273ffffffffffffffffffffffffffffffffffffffff167f5837c24b2118ea6706af508e7325db8dae0cc11958fa2713fbc6fe6e3d466f13838360405161069d9291906109d9565b60405180910390a2505050565b600080fd5b600073ffffffffffffffffffffffffffffffffffffffff82169050919050565b60006106da826106af565b9050919050565b6106ea816106cf565b81146106f557600080fd5b50565b600081359050610707816106e1565b92915050565b600060208284031215610723576107226106aa565b5b6000610731848285016106f8565b91505092915050565b6000819050919050565b61074d8161073a565b82525050565b60006020820190506107686000830184610744565b92915050565b60008115159050919050565b6107838161076e565b82525050565b600060608201905061079e6000830186610744565b6107ab6020830185610744565b6107b8604083018461077a565b949350505050565b60006020820190506107d5600083018461077a565b92915050565b6107e4816106cf565b82525050565b60006020820190506107ff60008301846107db565b92915050565b61080e8161073a565b811461081957600080fd5b50565b60008135905061082b81610805565b92915050565b60008060006060848603121561084a576108496106aa565b5b6000610858868287016106f8565b93505060206108698682870161081c565b925050604061087a8682870161081c565b9150509250925092565b600082825260208201905092915050565b7f4f6e6c79206f7263686573747261746f7220616c6c6f77656400000000000000600082015250565b60006108cb601983610884565b91506108d682610895565b602082019050919050565b600060208201905081810360008301526108fa816108be565b9050919050565b7f4e6f742072656769737465726564000000000000000000000000000000000000600082015250565b6000610937600e83610884565b915061094282610901565b602082019050919050565b600060208201905081810360008301526109668161092a565b9050919050565b7f416c726561647920726567697374657265640000000000000000000000000000600082015250565b60006109a3601283610884565b91506109ae8261096d565b602082019050919050565b600060208201905081810360008301526109d281610996565b9050919050565b60006040820190506109ee6000830185610744565b6109fb6020830184610744565b939250505056fea26469706673582212207bbef308d1406fd69ba922d4696701fddfe4702ff967400cc6b04e5fcee9dd6064736f6c63430008180033",
  "linkReferences": {},
  "deployedLinkReferences": {}
}